{
	"data": {
		"bytecode": {
			"linkReferences": {},
			"object": "60806040526001805f6101000a8154816fffffffffffffffffffffffffffffffff02191690836fffffffffffffffffffffffffffffffff1602179055506002600160106101000a8154816fffffffffffffffffffffffffffffffff02191690836fffffffffffffffffffffffffffffffff1602179055503480156080575f80fd5b506107618061008e5f395ff3fe608060405234801561000f575f80fd5b506004361061007b575f3560e01c80637dfc8480116100595780637dfc8480146100ed578063975057e71461010c578063a381558d14610116578063bb3137f3146101465761007b565b80632ae08b811461007f5780634a2fb8bd1461009f578063693507ee146100bd575b5f80fd5b610087610176565b604051610096939291906103b1565b60405180910390f35b6100a76101a1565b6040516100b491906103e6565b60405180910390f35b6100d760048036038101906100d2919061043a565b6101b5565b6040516100e491906103e6565b60405180910390f35b6100f56101f7565b604051610103929190610465565b60405180910390f35b61011461021a565b005b610130600480360381019061012b91906105dc565b610346565b60405161013d91906106da565b60405180910390f35b610160600480360381019061015b919061043a565b610372565b60405161016d9190610712565b60405180910390f35b5f805f805f806001601081945080935060015f555f5492505050828282955095509550505050909192565b5f8060016002808201925050508091505090565b5f80600290505f816040516020016101cd91906103e6565b6040516020818303038152906040528051906020012090505f848201549050809350505050919050565b5f80610201610381565b6020815f01818152505060408160200181815260406080f35b60015f806101000a81548163ffffffff021916908363ffffffff16021790555060165f60046101000a81548163ffffffff021916908363ffffffff16021790555061014d5f60086101000a81548167ffffffffffffffff021916908367ffffffffffffffff16021790555061115c5f60106101000a8154816fffffffffffffffffffffffffffffffff02191690836fffffffffffffffffffffffffffffffff160217905550600265650e124ef1c7908060018154018082558091505060019003905f5260205f20015f9091909190915055600265ca1c249de38e908060018154018082558091505060019003905f5260205f20015f9091909190915055600266012f2a36ecd555908060018154018082558091505060019003905f5260205f20015f9091909190915055565b606081825160208102602083010160048152600182019150818352610140604052505050819050919050565b5f808254905080915050919050565b60405180604001604052805f81526020015f81525090565b5f819050919050565b6103ab81610399565b82525050565b5f6060820190506103c45f8301866103a2565b6103d160208301856103a2565b6103de60408301846103a2565b949350505050565b5f6020820190506103f95f8301846103a2565b92915050565b5f604051905090565b5f80fd5b5f80fd5b61041981610399565b8114610423575f80fd5b50565b5f8135905061043481610410565b92915050565b5f6020828403121561044f5761044e610408565b5b5f61045c84828501610426565b91505092915050565b5f6040820190506104785f8301856103a2565b61048560208301846103a2565b9392505050565b5f80fd5b5f601f19601f8301169050919050565b7f4e487b71000000000000000000000000000000000000000000000000000000005f52604160045260245ffd5b6104d682610490565b810181811067ffffffffffffffff821117156104f5576104f46104a0565b5b80604052505050565b5f6105076103ff565b905061051382826104cd565b919050565b5f67ffffffffffffffff821115610532576105316104a0565b5b602082029050602081019050919050565b5f80fd5b5f61055961055484610518565b6104fe565b9050808382526020820190506020840283018581111561057c5761057b610543565b5b835b818110156105a557806105918882610426565b84526020840193505060208101905061057e565b5050509392505050565b5f82601f8301126105c3576105c261048c565b5b81356105d3848260208601610547565b91505092915050565b5f602082840312156105f1576105f0610408565b5b5f82013567ffffffffffffffff81111561060e5761060d61040c565b5b61061a848285016105af565b91505092915050565b5f81519050919050565b5f82825260208201905092915050565b5f819050602082019050919050565b61065581610399565b82525050565b5f610666838361064c565b60208301905092915050565b5f602082019050919050565b5f61068882610623565b610692818561062d565b935061069d8361063d565b805f5b838110156106cd5781516106b4888261065b565b97506106bf83610672565b9250506001810190506106a0565b5085935050505092915050565b5f6020820190508181035f8301526106f2818461067e565b905092915050565b5f819050919050565b61070c816106fa565b82525050565b5f6020820190506107255f830184610703565b9291505056fea2646970667358221220efcbfd00289207987628cb4b304a0e62c91c3b388bfb06b39c1ab8b0674ee1a064736f6c634300081a0033",
			"opcodes": "PUSH1 0x80 PUSH1 0x40 MSTORE PUSH1 0x1 DUP1 PUSH0 PUSH2 0x100 EXP DUP2 SLOAD DUP2 PUSH16 0xFFFFFFFFFFFFFFFFFFFFFFFFFFFFFFFF MUL NOT AND SWAP1 DUP4 PUSH16 0xFFFFFFFFFFFFFFFFFFFFFFFFFFFFFFFF AND MUL OR SWAP1 SSTORE POP PUSH1 0x2 PUSH1 0x1 PUSH1 0x10 PUSH2 0x100 EXP DUP2 SLOAD DUP2 PUSH16 0xFFFFFFFFFFFFFFFFFFFFFFFFFFFFFFFF MUL NOT AND SWAP1 DUP4 PUSH16 0xFFFFFFFFFFFFFFFFFFFFFFFFFFFFFFFF AND MUL OR SWAP1 SSTORE POP CALLVALUE DUP1 ISZERO PUSH1 0x80 JUMPI PUSH0 DUP1 REVERT JUMPDEST POP PUSH2 0x761 DUP1 PUSH2 0x8E PUSH0 CODECOPY PUSH0 RETURN INVALID PUSH1 0x80 PUSH1 0x40 MSTORE CALLVALUE DUP1 ISZERO PUSH2 0xF JUMPI PUSH0 DUP1 REVERT JUMPDEST POP PUSH1 0x4 CALLDATASIZE LT PUSH2 0x7B JUMPI PUSH0 CALLDATALOAD PUSH1 0xE0 SHR DUP1 PUSH4 0x7DFC8480 GT PUSH2 0x59 JUMPI DUP1 PUSH4 0x7DFC8480 EQ PUSH2 0xED JUMPI DUP1 PUSH4 0x975057E7 EQ PUSH2 0x10C JUMPI DUP1 PUSH4 0xA381558D EQ PUSH2 0x116 JUMPI DUP1 PUSH4 0xBB3137F3 EQ PUSH2 0x146 JUMPI PUSH2 0x7B JUMP JUMPDEST DUP1 PUSH4 0x2AE08B81 EQ PUSH2 0x7F JUMPI DUP1 PUSH4 0x4A2FB8BD EQ PUSH2 0x9F JUMPI DUP1 PUSH4 0x693507EE EQ PUSH2 0xBD JUMPI JUMPDEST PUSH0 DUP1 REVERT JUMPDEST PUSH2 0x87 PUSH2 0x176 JUMP JUMPDEST PUSH1 0x40 MLOAD PUSH2 0x96 SWAP4 SWAP3 SWAP2 SWAP1 PUSH2 0x3B1 JUMP JUMPDEST PUSH1 0x40 MLOAD DUP1 SWAP2 SUB SWAP1 RETURN JUMPDEST PUSH2 0xA7 PUSH2 0x1A1 JUMP JUMPDEST PUSH1 0x40 MLOAD PUSH2 0xB4 SWAP2 SWAP1 PUSH2 0x3E6 JUMP JUMPDEST PUSH1 0x40 MLOAD DUP1 SWAP2 SUB SWAP1 RETURN JUMPDEST PUSH2 0xD7 PUSH1 0x4 DUP1 CALLDATASIZE SUB DUP2 ADD SWAP1 PUSH2 0xD2 SWAP2 SWAP1 PUSH2 0x43A JUMP JUMPDEST PUSH2 0x1B5 JUMP JUMPDEST PUSH1 0x40 MLOAD PUSH2 0xE4 SWAP2 SWAP1 PUSH2 0x3E6 JUMP JUMPDEST PUSH1 0x40 MLOAD DUP1 SWAP2 SUB SWAP1 RETURN JUMPDEST PUSH2 0xF5 PUSH2 0x1F7 JUMP JUMPDEST PUSH1 0x40 MLOAD PUSH2 0x103 SWAP3 SWAP2 SWAP1 PUSH2 0x465 JUMP JUMPDEST PUSH1 0x40 MLOAD DUP1 SWAP2 SUB SWAP1 RETURN JUMPDEST PUSH2 0x114 PUSH2 0x21A JUMP JUMPDEST STOP JUMPDEST PUSH2 0x130 PUSH1 0x4 DUP1 CALLDATASIZE SUB DUP2 ADD SWAP1 PUSH2 0x12B SWAP2 SWAP1 PUSH2 0x5DC JUMP JUMPDEST PUSH2 0x346 JUMP JUMPDEST PUSH1 0x40 MLOAD PUSH2 0x13D SWAP2 SWAP1 PUSH2 0x6DA JUMP JUMPDEST PUSH1 0x40 MLOAD DUP1 SWAP2 SUB SWAP1 RETURN JUMPDEST PUSH2 0x160 PUSH1 0x4 DUP1 CALLDATASIZE SUB DUP2 ADD SWAP1 PUSH2 0x15B SWAP2 SWAP1 PUSH2 0x43A JUMP JUMPDEST PUSH2 0x372 JUMP JUMPDEST PUSH1 0x40 MLOAD PUSH2 0x16D SWAP2 SWAP1 PUSH2 0x712 JUMP JUMPDEST PUSH1 0x40 MLOAD DUP1 SWAP2 SUB SWAP1 RETURN JUMPDEST PUSH0 DUP1 PUSH0 DUP1 PUSH0 DUP1 PUSH1 0x1 PUSH1 0x10 DUP2 SWAP5 POP DUP1 SWAP4 POP PUSH1 0x1 PUSH0 SSTORE PUSH0 SLOAD SWAP3 POP POP POP DUP3 DUP3 DUP3 SWAP6 POP SWAP6 POP SWAP6 POP POP POP POP SWAP1 SWAP2 SWAP3 JUMP JUMPDEST PUSH0 DUP1 PUSH1 0x1 PUSH1 0x2 DUP1 DUP3 ADD SWAP3 POP POP POP DUP1 SWAP2 POP POP SWAP1 JUMP JUMPDEST PUSH0 DUP1 PUSH1 0x2 SWAP1 POP PUSH0 DUP2 PUSH1 0x40 MLOAD PUSH1 0x20 ADD PUSH2 0x1CD SWAP2 SWAP1 PUSH2 0x3E6 JUMP JUMPDEST PUSH1 0x40 MLOAD PUSH1 0x20 DUP2 DUP4 SUB SUB DUP2 MSTORE SWAP1 PUSH1 0x40 MSTORE DUP1 MLOAD SWAP1 PUSH1 0x20 ADD KECCAK256 SWAP1 POP PUSH0 DUP5 DUP3 ADD SLOAD SWAP1 POP DUP1 SWAP4 POP POP POP POP SWAP2 SWAP1 POP JUMP JUMPDEST PUSH0 DUP1 PUSH2 0x201 PUSH2 0x381 JUMP JUMPDEST PUSH1 0x20 DUP2 PUSH0 ADD DUP2 DUP2 MSTORE POP POP PUSH1 0x40 DUP2 PUSH1 0x20 ADD DUP2 DUP2 MSTORE PUSH1 0x40 PUSH1 0x80 RETURN JUMPDEST PUSH1 0x1 PUSH0 DUP1 PUSH2 0x100 EXP DUP2 SLOAD DUP2 PUSH4 0xFFFFFFFF MUL NOT AND SWAP1 DUP4 PUSH4 0xFFFFFFFF AND MUL OR SWAP1 SSTORE POP PUSH1 0x16 PUSH0 PUSH1 0x4 PUSH2 0x100 EXP DUP2 SLOAD DUP2 PUSH4 0xFFFFFFFF MUL NOT AND SWAP1 DUP4 PUSH4 0xFFFFFFFF AND MUL OR SWAP1 SSTORE POP PUSH2 0x14D PUSH0 PUSH1 0x8 PUSH2 0x100 EXP DUP2 SLOAD DUP2 PUSH8 0xFFFFFFFFFFFFFFFF MUL NOT AND SWAP1 DUP4 PUSH8 0xFFFFFFFFFFFFFFFF AND MUL OR SWAP1 SSTORE POP PUSH2 0x115C PUSH0 PUSH1 0x10 PUSH2 0x100 EXP DUP2 SLOAD DUP2 PUSH16 0xFFFFFFFFFFFFFFFFFFFFFFFFFFFFFFFF MUL NOT AND SWAP1 DUP4 PUSH16 0xFFFFFFFFFFFFFFFFFFFFFFFFFFFFFFFF AND MUL OR SWAP1 SSTORE POP PUSH1 0x2 PUSH6 0x650E124EF1C7 SWAP1 DUP1 PUSH1 0x1 DUP2 SLOAD ADD DUP1 DUP3 SSTORE DUP1 SWAP2 POP POP PUSH1 0x1 SWAP1 SUB SWAP1 PUSH0 MSTORE PUSH1 0x20 PUSH0 KECCAK256 ADD PUSH0 SWAP1 SWAP2 SWAP1 SWAP2 SWAP1 SWAP2 POP SSTORE PUSH1 0x2 PUSH6 0xCA1C249DE38E SWAP1 DUP1 PUSH1 0x1 DUP2 SLOAD ADD DUP1 DUP3 SSTORE DUP1 SWAP2 POP POP PUSH1 0x1 SWAP1 SUB SWAP1 PUSH0 MSTORE PUSH1 0x20 PUSH0 KECCAK256 ADD PUSH0 SWAP1 SWAP2 SWAP1 SWAP2 SWAP1 SWAP2 POP SSTORE PUSH1 0x2 PUSH7 0x12F2A36ECD555 SWAP1 DUP1 PUSH1 0x1 DUP2 SLOAD ADD DUP1 DUP3 SSTORE DUP1 SWAP2 POP POP PUSH1 0x1 SWAP1 SUB SWAP1 PUSH0 MSTORE PUSH1 0x20 PUSH0 KECCAK256 ADD PUSH0 SWAP1 SWAP2 SWAP1 SWAP2 SWAP1 SWAP2 POP SSTORE JUMP JUMPDEST PUSH1 0x60 DUP2 DUP3 MLOAD PUSH1 0x20 DUP2 MUL PUSH1 0x20 DUP4 ADD ADD PUSH1 0x4 DUP2 MSTORE PUSH1 0x1 DUP3 ADD SWAP2 POP DUP2 DUP4 MSTORE PUSH2 0x140 PUSH1 0x40 MSTORE POP POP POP DUP2 SWAP1 POP SWAP2 SWAP1 POP JUMP JUMPDEST PUSH0 DUP1 DUP3 SLOAD SWAP1 POP DUP1 SWAP2 POP POP SWAP2 SWAP1 POP JUMP JUMPDEST PUSH1 0x40 MLOAD DUP1 PUSH1 0x40 ADD PUSH1 0x40 MSTORE DUP1 PUSH0 DUP2 MSTORE PUSH1 0x20 ADD PUSH0 DUP2 MSTORE POP SWAP1 JUMP JUMPDEST PUSH0 DUP2 SWAP1 POP SWAP2 SWAP1 POP JUMP JUMPDEST PUSH2 0x3AB DUP2 PUSH2 0x399 JUMP JUMPDEST DUP3 MSTORE POP POP JUMP JUMPDEST PUSH0 PUSH1 0x60 DUP3 ADD SWAP1 POP PUSH2 0x3C4 PUSH0 DUP4 ADD DUP7 PUSH2 0x3A2 JUMP JUMPDEST PUSH2 0x3D1 PUSH1 0x20 DUP4 ADD DUP6 PUSH2 0x3A2 JUMP JUMPDEST PUSH2 0x3DE PUSH1 0x40 DUP4 ADD DUP5 PUSH2 0x3A2 JUMP JUMPDEST SWAP5 SWAP4 POP POP POP POP JUMP JUMPDEST PUSH0 PUSH1 0x20 DUP3 ADD SWAP1 POP PUSH2 0x3F9 PUSH0 DUP4 ADD DUP5 PUSH2 0x3A2 JUMP JUMPDEST SWAP3 SWAP2 POP POP JUMP JUMPDEST PUSH0 PUSH1 0x40 MLOAD SWAP1 POP SWAP1 JUMP JUMPDEST PUSH0 DUP1 REVERT JUMPDEST PUSH0 DUP1 REVERT JUMPDEST PUSH2 0x419 DUP2 PUSH2 0x399 JUMP JUMPDEST DUP2 EQ PUSH2 0x423 JUMPI PUSH0 DUP1 REVERT JUMPDEST POP JUMP JUMPDEST PUSH0 DUP2 CALLDATALOAD SWAP1 POP PUSH2 0x434 DUP2 PUSH2 0x410 JUMP JUMPDEST SWAP3 SWAP2 POP POP JUMP JUMPDEST PUSH0 PUSH1 0x20 DUP3 DUP5 SUB SLT ISZERO PUSH2 0x44F JUMPI PUSH2 0x44E PUSH2 0x408 JUMP JUMPDEST JUMPDEST PUSH0 PUSH2 0x45C DUP5 DUP3 DUP6 ADD PUSH2 0x426 JUMP JUMPDEST SWAP2 POP POP SWAP3 SWAP2 POP POP JUMP JUMPDEST PUSH0 PUSH1 0x40 DUP3 ADD SWAP1 POP PUSH2 0x478 PUSH0 DUP4 ADD DUP6 PUSH2 0x3A2 JUMP JUMPDEST PUSH2 0x485 PUSH1 0x20 DUP4 ADD DUP5 PUSH2 0x3A2 JUMP JUMPDEST SWAP4 SWAP3 POP POP POP JUMP JUMPDEST PUSH0 DUP1 REVERT JUMPDEST PUSH0 PUSH1 0x1F NOT PUSH1 0x1F DUP4 ADD AND SWAP1 POP SWAP2 SWAP1 POP JUMP JUMPDEST PUSH32 0x4E487B7100000000000000000000000000000000000000000000000000000000 PUSH0 MSTORE PUSH1 0x41 PUSH1 0x4 MSTORE PUSH1 0x24 PUSH0 REVERT JUMPDEST PUSH2 0x4D6 DUP3 PUSH2 0x490 JUMP JUMPDEST DUP2 ADD DUP2 DUP2 LT PUSH8 0xFFFFFFFFFFFFFFFF DUP3 GT OR ISZERO PUSH2 0x4F5 JUMPI PUSH2 0x4F4 PUSH2 0x4A0 JUMP JUMPDEST JUMPDEST DUP1 PUSH1 0x40 MSTORE POP POP POP JUMP JUMPDEST PUSH0 PUSH2 0x507 PUSH2 0x3FF JUMP JUMPDEST SWAP1 POP PUSH2 0x513 DUP3 DUP3 PUSH2 0x4CD JUMP JUMPDEST SWAP2 SWAP1 POP JUMP JUMPDEST PUSH0 PUSH8 0xFFFFFFFFFFFFFFFF DUP3 GT ISZERO PUSH2 0x532 JUMPI PUSH2 0x531 PUSH2 0x4A0 JUMP JUMPDEST JUMPDEST PUSH1 0x20 DUP3 MUL SWAP1 POP PUSH1 0x20 DUP2 ADD SWAP1 POP SWAP2 SWAP1 POP JUMP JUMPDEST PUSH0 DUP1 REVERT JUMPDEST PUSH0 PUSH2 0x559 PUSH2 0x554 DUP5 PUSH2 0x518 JUMP JUMPDEST PUSH2 0x4FE JUMP JUMPDEST SWAP1 POP DUP1 DUP4 DUP3 MSTORE PUSH1 0x20 DUP3 ADD SWAP1 POP PUSH1 0x20 DUP5 MUL DUP4 ADD DUP6 DUP2 GT ISZERO PUSH2 0x57C JUMPI PUSH2 0x57B PUSH2 0x543 JUMP JUMPDEST JUMPDEST DUP4 JUMPDEST DUP2 DUP2 LT ISZERO PUSH2 0x5A5 JUMPI DUP1 PUSH2 0x591 DUP9 DUP3 PUSH2 0x426 JUMP JUMPDEST DUP5 MSTORE PUSH1 0x20 DUP5 ADD SWAP4 POP POP PUSH1 0x20 DUP2 ADD SWAP1 POP PUSH2 0x57E JUMP JUMPDEST POP POP POP SWAP4 SWAP3 POP POP POP JUMP JUMPDEST PUSH0 DUP3 PUSH1 0x1F DUP4 ADD SLT PUSH2 0x5C3 JUMPI PUSH2 0x5C2 PUSH2 0x48C JUMP JUMPDEST JUMPDEST DUP2 CALLDATALOAD PUSH2 0x5D3 DUP5 DUP3 PUSH1 0x20 DUP7 ADD PUSH2 0x547 JUMP JUMPDEST SWAP2 POP POP SWAP3 SWAP2 POP POP JUMP JUMPDEST PUSH0 PUSH1 0x20 DUP3 DUP5 SUB SLT ISZERO PUSH2 0x5F1 JUMPI PUSH2 0x5F0 PUSH2 0x408 JUMP JUMPDEST JUMPDEST PUSH0 DUP3 ADD CALLDATALOAD PUSH8 0xFFFFFFFFFFFFFFFF DUP2 GT ISZERO PUSH2 0x60E JUMPI PUSH2 0x60D PUSH2 0x40C JUMP JUMPDEST JUMPDEST PUSH2 0x61A DUP5 DUP3 DUP6 ADD PUSH2 0x5AF JUMP JUMPDEST SWAP2 POP POP SWAP3 SWAP2 POP POP JUMP JUMPDEST PUSH0 DUP2 MLOAD SWAP1 POP SWAP2 SWAP1 POP JUMP JUMPDEST PUSH0 DUP3 DUP3 MSTORE PUSH1 0x20 DUP3 ADD SWAP1 POP SWAP3 SWAP2 POP POP JUMP JUMPDEST PUSH0 DUP2 SWAP1 POP PUSH1 0x20 DUP3 ADD SWAP1 POP SWAP2 SWAP1 POP JUMP JUMPDEST PUSH2 0x655 DUP2 PUSH2 0x399 JUMP JUMPDEST DUP3 MSTORE POP POP JUMP JUMPDEST PUSH0 PUSH2 0x666 DUP4 DUP4 PUSH2 0x64C JUMP JUMPDEST PUSH1 0x20 DUP4 ADD SWAP1 POP SWAP3 SWAP2 POP POP JUMP JUMPDEST PUSH0 PUSH1 0x20 DUP3 ADD SWAP1 POP SWAP2 SWAP1 POP JUMP JUMPDEST PUSH0 PUSH2 0x688 DUP3 PUSH2 0x623 JUMP JUMPDEST PUSH2 0x692 DUP2 DUP6 PUSH2 0x62D JUMP JUMPDEST SWAP4 POP PUSH2 0x69D DUP4 PUSH2 0x63D JUMP JUMPDEST DUP1 PUSH0 JUMPDEST DUP4 DUP2 LT ISZERO PUSH2 0x6CD JUMPI DUP2 MLOAD PUSH2 0x6B4 DUP9 DUP3 PUSH2 0x65B JUMP JUMPDEST SWAP8 POP PUSH2 0x6BF DUP4 PUSH2 0x672 JUMP JUMPDEST SWAP3 POP POP PUSH1 0x1 DUP2 ADD SWAP1 POP PUSH2 0x6A0 JUMP JUMPDEST POP DUP6 SWAP4 POP POP POP POP SWAP3 SWAP2 POP POP JUMP JUMPDEST PUSH0 PUSH1 0x20 DUP3 ADD SWAP1 POP DUP2 DUP2 SUB PUSH0 DUP4 ADD MSTORE PUSH2 0x6F2 DUP2 DUP5 PUSH2 0x67E JUMP JUMPDEST SWAP1 POP SWAP3 SWAP2 POP POP JUMP JUMPDEST PUSH0 DUP2 SWAP1 POP SWAP2 SWAP1 POP JUMP JUMPDEST PUSH2 0x70C DUP2 PUSH2 0x6FA JUMP JUMPDEST DUP3 MSTORE POP POP JUMP JUMPDEST PUSH0 PUSH1 0x20 DUP3 ADD SWAP1 POP PUSH2 0x725 PUSH0 DUP4 ADD DUP5 PUSH2 0x703 JUMP JUMPDEST SWAP3 SWAP2 POP POP JUMP INVALID LOG2 PUSH5 0x6970667358 0x22 SLT KECCAK256 0xEF 0xCB REVERT STOP 0x28 SWAP3 SMOD SWAP9 PUSH23 0x28CB4B304A0E62C91C3B388BFB06B39C1AB8B0674EE1A0 PUSH5 0x736F6C6343 STOP ADDMOD BYTE STOP CALLER "
		},
		"gasEstimates": {
			"creation": {
				"codeDepositCost": "377800",
				"executionCost": "48999",
				"totalCost": "426799"
			},
			"external": {
				"addOneAnTwoYul()": "384",
				"getDynamicArray(uint256[])": "infinite",
				"getStructValues()": "274",
				"getValFromDynamicArray(uint256)": "infinite",
				"getValInHex(uint256)": "2772",
				"readAndWriteToStorage()": "infinite",
				"store()": "236639"
			}
		},
		"methodIdentifiers": {
			"addOneAnTwoYul()": "4a2fb8bd",
			"getDynamicArray(uint256[])": "a381558d",
			"getStructValues()": "7dfc8480",
			"getValFromDynamicArray(uint256)": "693507ee",
			"getValInHex(uint256)": "bb3137f3",
			"readAndWriteToStorage()": "2ae08b81",
			"store()": "975057e7"
		}
	},
	"abi": [
		{
			"inputs": [],
			"name": "addOneAnTwoYul",
			"outputs": [
				{
					"internalType": "uint256",
					"name": "",
					"type": "uint256"
				}
			],
			"stateMutability": "pure",
			"type": "function"
		},
		{
			"inputs": [
				{
					"internalType": "uint256[]",
					"name": "arr",
					"type": "uint256[]"
				}
			],
			"name": "getDynamicArray",
			"outputs": [
				{
					"internalType": "uint256[]",
					"name": "",
					"type": "uint256[]"
				}
			],
			"stateMutability": "pure",
			"type": "function"
		},
		{
			"inputs": [],
			"name": "getStructValues",
			"outputs": [
				{
					"internalType": "uint256",
					"name": "",
					"type": "uint256"
				},
				{
					"internalType": "uint256",
					"name": "",
					"type": "uint256"
				}
			],
			"stateMutability": "pure",
			"type": "function"
		},
		{
			"inputs": [
				{
					"internalType": "uint256",
					"name": "targetIndex",
					"type": "uint256"
				}
			],
			"name": "getValFromDynamicArray",
			"outputs": [
				{
					"internalType": "uint256",
					"name": "",
					"type": "uint256"
				}
			],
			"stateMutability": "view",
			"type": "function"
		},
		{
			"inputs": [
				{
					"internalType": "uint256",
					"name": "y",
					"type": "uint256"
				}
			],
			"name": "getValInHex",
			"outputs": [
				{
					"internalType": "bytes32",
					"name": "",
					"type": "bytes32"
				}
			],
			"stateMutability": "view",
			"type": "function"
		},
		{
			"inputs": [],
			"name": "readAndWriteToStorage",
			"outputs": [
				{
					"internalType": "uint256",
					"name": "",
					"type": "uint256"
				},
				{
					"internalType": "uint256",
					"name": "",
					"type": "uint256"
				},
				{
					"internalType": "uint256",
					"name": "",
					"type": "uint256"
				}
			],
			"stateMutability": "nonpayable",
			"type": "function"
		},
		{
			"inputs": [],
			"name": "store",
			"outputs": [],
			"stateMutability": "nonpayable",
			"type": "function"
		}
	]
}